{
  "_format": "hh-sol-artifact-1",
  "contractName": "Blackjack",
  "sourceName": "contracts/Blackjack.sol",
  "abi": [
    {
      "inputs": [
        {
          "internalType": "address[]",
          "name": "_players",
          "type": "address[]"
        },
        {
          "internalType": "address",
          "name": "_token",
          "type": "address"
        }
      ],
      "stateMutability": "nonpayable",
      "type": "constructor"
    },
    {
      "anonymous": false,
      "inputs": [
        {
          "indexed": false,
          "internalType": "address",
          "name": "player",
          "type": "address"
        },
        {
          "indexed": false,
          "internalType": "uint256",
          "name": "amount",
          "type": "uint256"
        }
      ],
      "name": "BetReceived",
      "type": "event"
    },
    {
      "anonymous": false,
      "inputs": [
        {
          "indexed": false,
          "internalType": "address",
          "name": "player",
          "type": "address"
        },
        {
          "indexed": false,
          "internalType": "enum Suit",
          "name": "suit",
          "type": "uint8"
        },
        {
          "indexed": false,
          "internalType": "enum Value",
          "name": "value",
          "type": "uint8"
        }
      ],
      "name": "CardDrawn",
      "type": "event"
    },
    {
      "anonymous": false,
      "inputs": [
        {
          "indexed": false,
          "internalType": "address",
          "name": "player",
          "type": "address"
        },
        {
          "indexed": false,
          "internalType": "uint256",
          "name": "amount",
          "type": "uint256"
        }
      ],
      "name": "CollectedChips",
      "type": "event"
    },
    {
      "anonymous": false,
      "inputs": [
        {
          "indexed": false,
          "internalType": "address",
          "name": "dealer",
          "type": "address"
        }
      ],
      "name": "DealerMoved",
      "type": "event"
    },
    {
      "anonymous": false,
      "inputs": [
        {
          "indexed": false,
          "internalType": "address",
          "name": "player",
          "type": "address"
        },
        {
          "indexed": false,
          "internalType": "uint256",
          "name": "amount",
          "type": "uint256"
        }
      ],
      "name": "PaidChips",
      "type": "event"
    },
    {
      "anonymous": false,
      "inputs": [
        {
          "indexed": false,
          "internalType": "address",
          "name": "player",
          "type": "address"
        }
      ],
      "name": "PlayerMoved",
      "type": "event"
    },
    {
      "anonymous": false,
      "inputs": [
        {
          "indexed": false,
          "internalType": "enum Blackjack.Stage",
          "name": "stage",
          "type": "uint8"
        }
      ],
      "name": "StageAdvanced",
      "type": "event"
    },
    {
      "inputs": [],
      "name": "MAX_BET",
      "outputs": [
        {
          "internalType": "uint256",
          "name": "",
          "type": "uint256"
        }
      ],
      "stateMutability": "view",
      "type": "function"
    },
    {
      "inputs": [],
      "name": "MIN_BET",
      "outputs": [
        {
          "internalType": "uint256",
          "name": "",
          "type": "uint256"
        }
      ],
      "stateMutability": "view",
      "type": "function"
    },
    {
      "inputs": [
        {
          "internalType": "uint256",
          "name": "amount",
          "type": "uint256"
        }
      ],
      "name": "bet",
      "outputs": [],
      "stateMutability": "nonpayable",
      "type": "function"
    },
    {
      "inputs": [],
      "name": "deal",
      "outputs": [],
      "stateMutability": "nonpayable",
      "type": "function"
    },
    {
      "inputs": [],
      "name": "getCurrentStage",
      "outputs": [
        {
          "internalType": "enum Blackjack.Stage",
          "name": "",
          "type": "uint8"
        }
      ],
      "stateMutability": "view",
      "type": "function"
    },
    {
      "inputs": [],
      "name": "getDealersFaceUpCardValue",
      "outputs": [
        {
          "internalType": "uint256",
          "name": "",
          "type": "uint256"
        }
      ],
      "stateMutability": "view",
      "type": "function"
    },
    {
      "inputs": [],
      "name": "getGameInfo",
      "outputs": [
        {
          "internalType": "address",
          "name": "",
          "type": "address"
        },
        {
          "internalType": "uint256",
          "name": "",
          "type": "uint256"
        },
        {
          "internalType": "uint256",
          "name": "",
          "type": "uint256"
        },
        {
          "internalType": "uint256",
          "name": "numPlayers",
          "type": "uint256"
        },
        {
          "internalType": "enum Blackjack.Stage",
          "name": "",
          "type": "uint8"
        },
        {
          "internalType": "address[]",
          "name": "",
          "type": "address[]"
        }
      ],
      "stateMutability": "view",
      "type": "function"
    },
    {
      "inputs": [
        {
          "internalType": "address",
          "name": "player",
          "type": "address"
        }
      ],
      "name": "getPlayerInfo",
      "outputs": [
        {
          "internalType": "bool",
          "name": "",
          "type": "bool"
        },
        {
          "internalType": "bool",
          "name": "",
          "type": "bool"
        },
        {
          "internalType": "uint256",
          "name": "",
          "type": "uint256"
        },
        {
          "internalType": "uint256",
          "name": "",
          "type": "uint256"
        }
      ],
      "stateMutability": "view",
      "type": "function"
    },
    {
      "inputs": [],
      "name": "payout",
      "outputs": [],
      "stateMutability": "nonpayable",
      "type": "function"
    },
    {
      "inputs": [
        {
          "internalType": "enum Blackjack.Decision",
          "name": "decision",
          "type": "uint8"
        }
      ],
      "name": "play",
      "outputs": [],
      "stateMutability": "nonpayable",
      "type": "function"
    },
    {
      "inputs": [
        {
          "internalType": "address",
          "name": "",
          "type": "address"
        }
      ],
      "name": "players",
      "outputs": [
        {
          "internalType": "bool",
          "name": "isPlayer",
          "type": "bool"
        },
        {
          "internalType": "bool",
          "name": "betMade",
          "type": "bool"
        },
        {
          "internalType": "bool",
          "name": "turnOver",
          "type": "bool"
        },
        {
          "internalType": "uint256",
          "name": "betValue",
          "type": "uint256"
        },
        {
          "internalType": "uint256",
          "name": "stackValue",
          "type": "uint256"
        }
      ],
      "stateMutability": "view",
      "type": "function"
    },
    {
      "inputs": [],
      "name": "token",
      "outputs": [
        {
          "internalType": "contract ChipToken",
          "name": "",
          "type": "address"
        }
      ],
      "stateMutability": "view",
      "type": "function"
    }
  ],
  "bytecode": "0x60806040523480156200001157600080fd5b5060405162003aae38038062003aae833981810160405281019062000037919062000679565b806000806101000a81548173ffffffffffffffffffffffffffffffffffffffff021916908373ffffffffffffffffffffffffffffffffffffffff1602179055506040518060600160405280620000926200039d60201b60201c565b73ffffffffffffffffffffffffffffffffffffffff168152602001600081526020016000815250600760008201518160000160006101000a81548173ffffffffffffffffffffffffffffffffffffffff021916908373ffffffffffffffffffffffffffffffffffffffff160217905550602082015181600101556040820151816002015590505060005b8251811015620002475760008382815181106200013e576200013d62000857565b5b602002602001015190506040518060a00160405280600115158152602001600015158152602001600015158152602001600081526020016000815250600a60008373ffffffffffffffffffffffffffffffffffffffff1673ffffffffffffffffffffffffffffffffffffffff16815260200190815260200160002060008201518160000160006101000a81548160ff02191690831515021790555060208201518160000160016101000a81548160ff02191690831515021790555060408201518160000160026101000a81548160ff02191690831515021790555060608201518160010155608082015181600201559050505080806200023e90620007ab565b9150506200011c565b506040518060c00160405280836000815181106200026a576200026962000857565b5b602002602001015173ffffffffffffffffffffffffffffffffffffffff16815260200160008152602001600081526020018351815260200160006004811115620002b957620002b862000828565b5b815260200183815250600160008201518160000160006101000a81548173ffffffffffffffffffffffffffffffffffffffff021916908373ffffffffffffffffffffffffffffffffffffffff16021790555060208201518160010155604082015181600201556060820151816003015560808201518160040160006101000a81548160ff0219169083600481111562000357576200035662000828565b5b021790555060a08201518160050190805190602001906200037a92919062000506565b5090505062000395600b620003a560201b620016ba1760201c565b5050620008f4565b600033905090565b60005b6004811015620005025760005b600d811015620004eb57826000016040518060400160405280846003811115620003e457620003e362000828565b5b6003811115620003f957620003f862000828565b5b815260200183600c81111562000414576200041362000828565b5b600c81111562000429576200042862000828565b5b8152509080600181540180825580915050600190039060005260206000200160009091909190915060008201518160000160006101000a81548160ff021916908360038111156200047f576200047e62000828565b5b021790555060208201518160000160016101000a81548160ff0219169083600c811115620004b257620004b162000828565b5b02179055505050826001016000815480929190620004d090620007ab565b91905055508080620004e290620007ab565b915050620003b5565b508080620004f990620007ab565b915050620003a8565b5050565b82805482825590600052602060002090810192821562000582579160200282015b82811115620005815782518260006101000a81548173ffffffffffffffffffffffffffffffffffffffff021916908373ffffffffffffffffffffffffffffffffffffffff1602179055509160200191906001019062000527565b5b50905062000591919062000595565b5090565b5b80821115620005b057600081600090555060010162000596565b5090565b6000620005cb620005c58462000708565b620006df565b90508083825260208201905082856020860282011115620005f157620005f0620008ba565b5b60005b858110156200062557816200060a88826200062f565b845260208401935060208301925050600181019050620005f4565b5050509392505050565b6000815190506200064081620008da565b92915050565b600082601f8301126200065e576200065d620008b5565b5b815162000670848260208601620005b4565b91505092915050565b60008060408385031215620006935762000692620008c4565b5b600083015167ffffffffffffffff811115620006b457620006b3620008bf565b5b620006c28582860162000646565b9250506020620006d5858286016200062f565b9150509250929050565b6000620006eb620006fe565b9050620006f9828262000775565b919050565b6000604051905090565b600067ffffffffffffffff82111562000726576200072562000886565b5b602082029050602081019050919050565b600062000744826200074b565b9050919050565b600073ffffffffffffffffffffffffffffffffffffffff82169050919050565b6000819050919050565b6200078082620008c9565b810181811067ffffffffffffffff82111715620007a257620007a162000886565b5b80604052505050565b6000620007b8826200076b565b91507fffffffffffffffffffffffffffffffffffffffffffffffffffffffffffffffff821415620007ee57620007ed620007f9565b5b600182019050919050565b7f4e487b7100000000000000000000000000000000000000000000000000000000600052601160045260246000fd5b7f4e487b7100000000000000000000000000000000000000000000000000000000600052602160045260246000fd5b7f4e487b7100000000000000000000000000000000000000000000000000000000600052603260045260246000fd5b7f4e487b7100000000000000000000000000000000000000000000000000000000600052604160045260246000fd5b600080fd5b600080fd5b600080fd5b600080fd5b6000601f19601f8301169050919050565b620008e58162000737565b8114620008f157600080fd5b50565b6131aa80620009046000396000f3fe608060405234801561001057600080fd5b50600436106100b45760003560e01c80636540742f116100715780636540742f1461015d5780637365870b1461017b5780637e95b52314610197578063e2eb41ff146101b5578063eedbe31d146101e9578063fc0c546a14610207576100b4565b80631746bd1b146100b9578063248adb8f146100dc57806353a04b05146100fa578063553df02114610116578063593284011461012057806363bd1d4a14610153575b600080fd5b6100c1610225565b6040516100d3969594939291906128b7565b60405180910390f35b6100e461031a565b6040516100f19190612b0d565b60405180910390f35b610114600480360381019061010f9190612512565b6103a2565b005b61011e610881565b005b61013a600480360381019061013591906124b8565b610d58565b60405161014a9493929190612972565b60405180910390f35b61015b610e93565b005b610165611149565b6040516101729190612b0d565b60405180910390f35b6101956004803603810190610190919061253f565b61114e565b005b61019f611612565b6040516101ac9190612b0d565b60405180910390f35b6101cf60048036038101906101ca91906124b8565b61161f565b6040516101e095949392919061291f565b60405180910390f35b6101f161167c565b6040516101fe91906129d2565b60405180910390f35b61020f611696565b60405161021c91906129b7565b60405180910390f35b60008060008060006060600160000160009054906101000a900473ffffffffffffffffffffffffffffffffffffffff166001800154600160020154600160030154600160040160009054906101000a900460ff166001600501808054806020026020016040519081016040528092919081815260200182805480156102ff57602002820191906000526020600020905b8160009054906101000a900473ffffffffffffffffffffffffffffffffffffffff1673ffffffffffffffffffffffffffffffffffffffff16815260200190600101908083116102b5575b50505050509050955095509550955095509550909192939495565b6000600280600481111561033157610330612e6e565b5b600160040160009054906101000a900460ff16600481111561035657610355612e6e565b5b14610396576040517f08c379a000000000000000000000000000000000000000000000000000000000815260040161038d90612aed565b60405180910390fd5b60076001015491505090565b60028060048111156103b7576103b6612e6e565b5b600160040160009054906101000a900460ff1660048111156103dc576103db612e6e565b5b1461041c576040517f08c379a000000000000000000000000000000000000000000000000000000000815260040161041390612aed565b60405180910390fd5b60011515600a600061042c6117ff565b73ffffffffffffffffffffffffffffffffffffffff1673ffffffffffffffffffffffffffffffffffffffff16815260200190815260200160002060000160009054906101000a900460ff161515146104b9576040517f08c379a00000000000000000000000000000000000000000000000000000000081526004016104b0906129ed565b60405180910390fd5b60001515600a60006104c96117ff565b73ffffffffffffffffffffffffffffffffffffffff1673ffffffffffffffffffffffffffffffffffffffff16815260200190815260200160002060000160029054906101000a900460ff16151514610556576040517f08c379a000000000000000000000000000000000000000000000000000000000815260040161054d90612a0d565b60405180910390fd5b600160000160009054906101000a900473ffffffffffffffffffffffffffffffffffffffff1673ffffffffffffffffffffffffffffffffffffffff1661059a6117ff565b73ffffffffffffffffffffffffffffffffffffffff16146105f0576040517f08c379a00000000000000000000000000000000000000000000000000000000081526004016105e790612a6d565b60405180910390fd5b60006105fa6117ff565b90506000600a60008373ffffffffffffffffffffffffffffffffffffffff1673ffffffffffffffffffffffffffffffffffffffff168152602001908152602001600020905060018081111561065257610651612e6e565b5b84600181111561066557610664612e6e565b5b14156106a85760018160000160026101000a81548160ff0219169083151502179055506001600201600081548092919061069e90612d8c565b9190505550610768565b60006106b4600b611807565b90507fcdd708ba90bb5d2f93e3e14125ca604c4c86d0fb97142531835c795e1583b35983826000015183602001516040516106f193929190612857565b60405180910390a16107068160200151611a5b565b8260020160008282546107199190612b72565b925050819055506015826002015411156107665760018260000160026101000a81548160ff0219169083151502179055506001600201600081548092919061076090612d8c565b91905055505b505b7f625ba646f05ab036edd0f8d88cd3926fe26722c0b6717841fcb9334334a4d095826040516107979190612805565b60405180910390a1600115158160000160029054906101000a900460ff1615151480156107cd5750600160030154600160020154105b1561085d576001600501600160020154815481106107ee576107ed612ecc565b5b9060005260206000200160009054906101000a900473ffffffffffffffffffffffffffffffffffffffff16600160000160006101000a81548173ffffffffffffffffffffffffffffffffffffffff021916908373ffffffffffffffffffffffffffffffffffffffff1602179055505b610865611b0c565b1561087b57610872611b20565b61087a611cde565b5b50505050565b600180600481111561089657610895612e6e565b5b600160040160009054906101000a900460ff1660048111156108bb576108ba612e6e565b5b146108fb576040517f08c379a00000000000000000000000000000000000000000000000000000000081526004016108f290612aed565b60405180910390fd5b600760000160009054906101000a900473ffffffffffffffffffffffffffffffffffffffff1673ffffffffffffffffffffffffffffffffffffffff1661093f6117ff565b73ffffffffffffffffffffffffffffffffffffffff1614610995576040517f08c379a000000000000000000000000000000000000000000000000000000000815260040161098c90612a8d565b60405180910390fd5b60005b600160030154811015610abc576000600160050182815481106109be576109bd612ecc565b5b9060005260206000200160009054906101000a900473ffffffffffffffffffffffffffffffffffffffff16905060006109f7600b611807565b90507fcdd708ba90bb5d2f93e3e14125ca604c4c86d0fb97142531835c795e1583b3598282600001518360200151604051610a3493929190612857565b60405180910390a16000610a4b8260200151611a5b565b905080600a60008573ffffffffffffffffffffffffffffffffffffffff1673ffffffffffffffffffffffffffffffffffffffff1681526020019081526020016000206002016000828254610a9f9190612b72565b925050819055505050508080610ab490612d8c565b915050610998565b506000610ac9600b611807565b90506000610ada8260200151611a5b565b90507fcdd708ba90bb5d2f93e3e14125ca604c4c86d0fb97142531835c795e1583b359600760000160009054906101000a900473ffffffffffffffffffffffffffffffffffffffff1683600001518460200151604051610b3c93929190612857565b60405180910390a18060076001016000828254610b599190612b72565b925050819055508060076002016000828254610b759190612b72565b9250508190555060005b600160030154811015610ca357600060016005018281548110610ba557610ba4612ecc565b5b9060005260206000200160009054906101000a900473ffffffffffffffffffffffffffffffffffffffff1690506000610bde600b611807565b90507fcdd708ba90bb5d2f93e3e14125ca604c4c86d0fb97142531835c795e1583b3598282600001518360200151604051610c1b93929190612857565b60405180910390a16000610c328260200151611a5b565b905080600a60008573ffffffffffffffffffffffffffffffffffffffff1673ffffffffffffffffffffffffffffffffffffffff1681526020019081526020016000206002016000828254610c869190612b72565b925050819055505050508080610c9b90612d8c565b915050610b7f565b506000610cb0600b611807565b90507fcdd708ba90bb5d2f93e3e14125ca604c4c86d0fb97142531835c795e1583b359600760000160009054906101000a900473ffffffffffffffffffffffffffffffffffffffff1682600001518360200151604051610d1293929190612857565b60405180910390a1610d278160200151611a5b565b60076002016000828254610d3b9190612b72565b92505081905550610d4a611fcf565b610d52611cde565b50505050565b600080600080600a60008673ffffffffffffffffffffffffffffffffffffffff1673ffffffffffffffffffffffffffffffffffffffff16815260200190815260200160002060000160019054906101000a900460ff16600a60008773ffffffffffffffffffffffffffffffffffffffff1673ffffffffffffffffffffffffffffffffffffffff16815260200190815260200160002060000160029054906101000a900460ff16600a60008873ffffffffffffffffffffffffffffffffffffffff1673ffffffffffffffffffffffffffffffffffffffff16815260200190815260200160002060010154600a60008973ffffffffffffffffffffffffffffffffffffffff1673ffffffffffffffffffffffffffffffffffffffff1681526020019081526020016000206002015493509350935093509193509193565b600760000160009054906101000a900473ffffffffffffffffffffffffffffffffffffffff1673ffffffffffffffffffffffffffffffffffffffff16610ed76117ff565b73ffffffffffffffffffffffffffffffffffffffff1614610f2d576040517f08c379a0000000000000000000000000000000000000000000000000000000008152600401610f2490612a8d565b60405180910390fd5b6003806004811115610f4257610f41612e6e565b5b600160040160009054906101000a900460ff166004811115610f6757610f66612e6e565b5b14610fa7576040517f08c379a0000000000000000000000000000000000000000000000000000000008152600401610f9e90612aed565b60405180910390fd5b6000601560076002015411905060005b60016003015481101561113c57600060016005018281548110610fdd57610fdc612ecc565b5b9060005260206000200160009054906101000a900473ffffffffffffffffffffffffffffffffffffffff1690506000600a60008373ffffffffffffffffffffffffffffffffffffffff1673ffffffffffffffffffffffffffffffffffffffff1681526020019081526020016000206040518060a00160405290816000820160009054906101000a900460ff161515151581526020016000820160019054906101000a900460ff161515151581526020016000820160029054906101000a900460ff1615151515815260200160018201548152602001600282015481525050905080604001511580156110cc5750835b156110ee576110e9826110e4600284606001516121ed565b612203565b611127565b806040015115801561110857506007600201548160800151115b156111265761112582611120600284606001516121ed565b612203565b5b5b5050808061113490612d8c565b915050610fb7565b50611145611cde565b5050565b600181565b600080600481111561116357611162612e6e565b5b600160040160009054906101000a900460ff16600481111561118857611187612e6e565b5b146111c8576040517f08c379a00000000000000000000000000000000000000000000000000000000081526004016111bf90612aed565b60405180910390fd5b81683635c9adc5dea0000081111580156111e3575060018110155b611222576040517f08c379a000000000000000000000000000000000000000000000000000000000815260040161121990612a2d565b60405180910390fd5b60001515600a60006112326117ff565b73ffffffffffffffffffffffffffffffffffffffff1673ffffffffffffffffffffffffffffffffffffffff16815260200190815260200160002060000160019054906101000a900460ff161515146112bf576040517f08c379a00000000000000000000000000000000000000000000000000000000081526004016112b690612acd565b60405180910390fd5b8060008054906101000a900473ffffffffffffffffffffffffffffffffffffffff1673ffffffffffffffffffffffffffffffffffffffff166370a082316113046117ff565b6040518263ffffffff1660e01b81526004016113209190612805565b60206040518083038186803b15801561133857600080fd5b505afa15801561134c573d6000803e3d6000fd5b505050506040513d601f19601f82011682018060405250810190611370919061256c565b10156113b1576040517f08c379a00000000000000000000000000000000000000000000000000000000081526004016113a890612aad565b60405180910390fd5b60011515600a60006113c16117ff565b73ffffffffffffffffffffffffffffffffffffffff1673ffffffffffffffffffffffffffffffffffffffff16815260200190815260200160002060000160009054906101000a900460ff1615151461144e576040517f08c379a0000000000000000000000000000000000000000000000000000000008152600401611445906129ed565b60405180910390fd5b60001515600a600061145e6117ff565b73ffffffffffffffffffffffffffffffffffffffff1673ffffffffffffffffffffffffffffffffffffffff16815260200190815260200160002060000160029054906101000a900460ff161515146114eb576040517f08c379a00000000000000000000000000000000000000000000000000000000081526004016114e290612a0d565b60405180910390fd5b60006114f56117ff565b905061150181856122dc565b6001600a60008373ffffffffffffffffffffffffffffffffffffffff1673ffffffffffffffffffffffffffffffffffffffff16815260200190815260200160002060000160016101000a81548160ff02191690831515021790555083600a60008373ffffffffffffffffffffffffffffffffffffffff1673ffffffffffffffffffffffffffffffffffffffff168152602001908152602001600020600101819055506001800160008154809291906115b890612d8c565b91905055507f0b870f7db0316e21abddd14a3936865c51a6d298208fb1ef77605c57a7fe08df81856040516115ee92919061288e565b60405180910390a16115fe6123b5565b1561160c5761160b611cde565b5b50505050565b683635c9adc5dea0000081565b600a6020528060005260406000206000915090508060000160009054906101000a900460ff16908060000160019054906101000a900460ff16908060000160029054906101000a900460ff16908060010154908060020154905085565b6000600160040160009054906101000a900460ff16905090565b60008054906101000a900473ffffffffffffffffffffffffffffffffffffffff1681565b60005b60048110156117fb5760005b600d8110156117e7578260000160405180604001604052808460038111156116f4576116f3612e6e565b5b600381111561170657611705612e6e565b5b815260200183600c81111561171e5761171d612e6e565b5b600c8111156117305761172f612e6e565b5b8152509080600181540180825580915050600190039060005260206000200160009091909190915060008201518160000160006101000a81548160ff0219169083600381111561178357611782612e6e565b5b021790555060208201518160000160016101000a81548160ff0219169083600c8111156117b3576117b2612e6e565b5b021790555050508260010160008154809291906117cf90612d8c565b919050555080806117df90612d8c565b9150506116c9565b5080806117f390612d8c565b9150506116bd565b5050565b600033905090565b61180f612411565b6000826001015411611856576040517f08c379a000000000000000000000000000000000000000000000000000000000815260040161184d90612a4d565b60405180910390fd5b600082600101546118656123c8565b61186f9190612ddf565b9050600083600001828154811061188957611888612ecc565b5b906000526020600020016040518060400160405290816000820160009054906101000a900460ff1660038111156118c3576118c2612e6e565b5b60038111156118d5576118d4612e6e565b5b81526020016000820160019054906101000a900460ff16600c8111156118fe576118fd612e6e565b5b600c8111156119105761190f612e6e565b5b815250509050836000016001856000018054905061192e9190612c53565b8154811061193f5761193e612ecc565b5b9060005260206000200184600001838154811061195f5761195e612ecc565b5b906000526020600020016000820160009054906101000a900460ff168160000160006101000a81548160ff021916908360038111156119a1576119a0612e6e565b5b02179055506000820160019054906101000a900460ff168160000160016101000a81548160ff0219169083600c8111156119de576119dd612e6e565b5b0217905550905050836000018054806119fa576119f9612e9d565b5b60019003818190600052602060002001600080820160006101000a81549060ff02191690556000820160016101000a81549060ff021916905550509055836001016000815480929190611a4c90612d62565b91905055508092505050919050565b60006009600c811115611a7157611a70612e6e565b5b82600c811115611a8457611a83612e6e565b5b1480611ab45750600a600c811115611a9f57611a9e612e6e565b5b82600c811115611ab257611ab1612e6e565b5b145b80611ae35750600b600c811115611ace57611acd612e6e565b5b82600c811115611ae157611ae0612e6e565b5b145b15611af157600a9050611b07565b81600c811115611b0457611b03612e6e565b5b90505b919050565b600060016003015460016002015414905090565b600760000160009054906101000a900473ffffffffffffffffffffffffffffffffffffffff1673ffffffffffffffffffffffffffffffffffffffff16611b646117ff565b73ffffffffffffffffffffffffffffffffffffffff1614611bba576040517f08c379a0000000000000000000000000000000000000000000000000000000008152600401611bb190612a8d565b60405180910390fd5b6002806004811115611bcf57611bce612e6e565b5b600160040160009054906101000a900460ff166004811115611bf457611bf3612e6e565b5b14611c34576040517f08c379a0000000000000000000000000000000000000000000000000000000008152600401611c2b90612aed565b60405180910390fd5b5b60116007600201541015611c7f576000611c4f600b611807565b9050611c5e8160200151611a5b565b60076002016000828254611c729190612b72565b9250508190555050611c35565b7f5ff2337534d606f18e67583f9111646f2fdbb035a5cc8a454e5b382dc943b915600760000160009054906101000a900473ffffffffffffffffffffffffffffffffffffffff16604051611cd39190612805565b60405180910390a150565b60006004811115611cf257611cf1612e6e565b5b600160040160009054906101000a900460ff166004811115611d1757611d16612e6e565b5b1415611d985760018060040160006101000a81548160ff02191690836004811115611d4557611d44612e6e565b5b02179055507f087b6fa18a1c8e172c612787dcbe8b401b2e3e144cfd5be67730dfa0a3c18f79600160040160009054906101000a900460ff16604051611d8b91906129d2565b60405180910390a1611fcd565b60016004811115611dac57611dab612e6e565b5b600160040160009054906101000a900460ff166004811115611dd157611dd0612e6e565b5b1415611e53576002600160040160006101000a81548160ff02191690836004811115611e0057611dff612e6e565b5b02179055507f087b6fa18a1c8e172c612787dcbe8b401b2e3e144cfd5be67730dfa0a3c18f79600160040160009054906101000a900460ff16604051611e4691906129d2565b60405180910390a1611fcc565b60026004811115611e6757611e66612e6e565b5b600160040160009054906101000a900460ff166004811115611e8c57611e8b612e6e565b5b1415611f0e576003600160040160006101000a81548160ff02191690836004811115611ebb57611eba612e6e565b5b02179055507f087b6fa18a1c8e172c612787dcbe8b401b2e3e144cfd5be67730dfa0a3c18f79600160040160009054906101000a900460ff16604051611f0191906129d2565b60405180910390a1611fcb565b60036004811115611f2257611f21612e6e565b5b600160040160009054906101000a900460ff166004811115611f4757611f46612e6e565b5b1415611fc9576004600160040160006101000a81548160ff02191690836004811115611f7657611f75612e6e565b5b02179055507f087b6fa18a1c8e172c612787dcbe8b401b2e3e144cfd5be67730dfa0a3c18f79600160040160009054906101000a900460ff16604051611fbc91906129d2565b60405180910390a1611fca565b5b5b5b5b565b6001806004811115611fe457611fe3612e6e565b5b600160040160009054906101000a900460ff16600481111561200957612008612e6e565b5b14612049576040517f08c379a000000000000000000000000000000000000000000000000000000000815260040161204090612aed565b60405180910390fd5b6000601560076002015414905060005b6001600301548110156121e85760006001600501828154811061207f5761207e612ecc565b5b9060005260206000200160009054906101000a900473ffffffffffffffffffffffffffffffffffffffff1690506000600a60008373ffffffffffffffffffffffffffffffffffffffff1673ffffffffffffffffffffffffffffffffffffffff16815260200190815260200160002090506000601582600201541490506000826001015490508515801561210f5750815b156121665760018360000160026101000a81548160ff021916908315150217905550600060026121408360016123fb565b61214a9190612bc8565b90506121608561215b6005846121ed565b612203565b506121d1565b8580156121705750815b156121a15760018360000160026101000a81548160ff02191690831515021790555061219c8482612203565b6121d0565b8580156121ac575081155b156121cf5760018360000160026101000a81548160ff0219169083151502179055505b5b5b5050505080806121e090612d8c565b915050612059565b505050565b600081836121fb9190612bf9565b905092915050565b60008054906101000a900473ffffffffffffffffffffffffffffffffffffffff1673ffffffffffffffffffffffffffffffffffffffff166323b872dd600760000160009054906101000a900473ffffffffffffffffffffffffffffffffffffffff1684846040518463ffffffff1660e01b815260040161228593929190612820565b602060405180830381600087803b15801561229f57600080fd5b505af11580156122b3573d6000803e3d6000fd5b505050506040513d601f19601f820116820180604052508101906122d791906124e5565b505050565b60008054906101000a900473ffffffffffffffffffffffffffffffffffffffff1673ffffffffffffffffffffffffffffffffffffffff166323b872dd83600760000160009054906101000a900473ffffffffffffffffffffffffffffffffffffffff16846040518463ffffffff1660e01b815260040161235e93929190612820565b602060405180830381600087803b15801561237857600080fd5b505af115801561238c573d6000803e3d6000fd5b505050506040513d601f19601f820116820180604052508101906123b091906124e5565b505050565b6000600160030154600180015414905090565b600044426040516020016123dd9291906127d9565b6040516020818303038152906040528051906020012060001c905090565b600081836124099190612b72565b905092915050565b6040518060400160405280600060038111156124305761242f612e6e565b5b81526020016000600c81111561244957612448612e6e565b5b81525090565b60008135905061245e8161311f565b92915050565b60008151905061247381613136565b92915050565b6000813590506124888161314d565b92915050565b60008135905061249d8161315d565b92915050565b6000815190506124b28161315d565b92915050565b6000602082840312156124ce576124cd612efb565b5b60006124dc8482850161244f565b91505092915050565b6000602082840312156124fb576124fa612efb565b5b600061250984828501612464565b91505092915050565b60006020828403121561252857612527612efb565b5b600061253684828501612479565b91505092915050565b60006020828403121561255557612554612efb565b5b60006125638482850161248e565b91505092915050565b60006020828403121561258257612581612efb565b5b6000612590848285016124a3565b91505092915050565b60006125a583836125b1565b60208301905092915050565b6125ba81612c87565b82525050565b6125c981612c87565b82525050565b60006125da82612b38565b6125e48185612b50565b93506125ef83612b28565b8060005b838110156126205781516126078882612599565b975061261283612b43565b9250506001810190506125f3565b5085935050505092915050565b61263681612c99565b82525050565b61264581612d08565b82525050565b61265481612d2c565b82525050565b61266381612d3e565b82525050565b61267281612d50565b82525050565b6000612685601a83612b61565b915061269082612f00565b602082019050919050565b60006126a8601283612b61565b91506126b382612f29565b602082019050919050565b60006126cb601983612b61565b91506126d682612f52565b602082019050919050565b60006126ee601e83612b61565b91506126f982612f7b565b602082019050919050565b6000612711601683612b61565b915061271c82612fa4565b602082019050919050565b6000612734602783612b61565b915061273f82612fcd565b604082019050919050565b6000612757602283612b61565b91506127628261301c565b604082019050919050565b600061277a601783612b61565b91506127858261306b565b602082019050919050565b600061279d602483612b61565b91506127a882613094565b604082019050919050565b6127bc81612cfe565b82525050565b6127d36127ce82612cfe565b612dd5565b82525050565b60006127e582856127c2565b6020820191506127f582846127c2565b6020820191508190509392505050565b600060208201905061281a60008301846125c0565b92915050565b600060608201905061283560008301866125c0565b61284260208301856125c0565b61284f60408301846127b3565b949350505050565b600060608201905061286c60008301866125c0565b612879602083018561265a565b6128866040830184612669565b949350505050565b60006040820190506128a360008301856125c0565b6128b060208301846127b3565b9392505050565b600060c0820190506128cc60008301896125c0565b6128d960208301886127b3565b6128e660408301876127b3565b6128f360608301866127b3565b612900608083018561264b565b81810360a083015261291281846125cf565b9050979650505050505050565b600060a082019050612934600083018861262d565b612941602083018761262d565b61294e604083018661262d565b61295b60608301856127b3565b61296860808301846127b3565b9695505050505050565b6000608082019050612987600083018761262d565b612994602083018661262d565b6129a160408301856127b3565b6129ae60608301846127b3565b95945050505050565b60006020820190506129cc600083018461263c565b92915050565b60006020820190506129e7600083018461264b565b92915050565b60006020820190508181036000830152612a0681612678565b9050919050565b60006020820190508181036000830152612a268161269b565b9050919050565b60006020820190508181036000830152612a46816126be565b9050919050565b60006020820190508181036000830152612a66816126e1565b9050919050565b60006020820190508181036000830152612a8681612704565b9050919050565b60006020820190508181036000830152612aa681612727565b9050919050565b60006020820190508181036000830152612ac68161274a565b9050919050565b60006020820190508181036000830152612ae68161276d565b9050919050565b60006020820190508181036000830152612b0681612790565b9050919050565b6000602082019050612b2260008301846127b3565b92915050565b6000819050602082019050919050565b600081519050919050565b6000602082019050919050565b600082825260208201905092915050565b600082825260208201905092915050565b6000612b7d82612cfe565b9150612b8883612cfe565b9250827fffffffffffffffffffffffffffffffffffffffffffffffffffffffffffffffff03821115612bbd57612bbc612e10565b5b828201905092915050565b6000612bd382612cfe565b9150612bde83612cfe565b925082612bee57612bed612e3f565b5b828204905092915050565b6000612c0482612cfe565b9150612c0f83612cfe565b9250817fffffffffffffffffffffffffffffffffffffffffffffffffffffffffffffffff0483118215151615612c4857612c47612e10565b5b828202905092915050565b6000612c5e82612cfe565b9150612c6983612cfe565b925082821015612c7c57612c7b612e10565b5b828203905092915050565b6000612c9282612cde565b9050919050565b60008115159050919050565b6000819050612cb3826130e3565b919050565b6000819050612cc6826130f7565b919050565b6000819050612cd98261310b565b919050565b600073ffffffffffffffffffffffffffffffffffffffff82169050919050565b6000819050919050565b6000612d1382612d1a565b9050919050565b6000612d2582612cde565b9050919050565b6000612d3782612ca5565b9050919050565b6000612d4982612cb8565b9050919050565b6000612d5b82612ccb565b9050919050565b6000612d6d82612cfe565b91506000821415612d8157612d80612e10565b5b600182039050919050565b6000612d9782612cfe565b91507fffffffffffffffffffffffffffffffffffffffffffffffffffffffffffffffff821415612dca57612dc9612e10565b5b600182019050919050565b6000819050919050565b6000612dea82612cfe565b9150612df583612cfe565b925082612e0557612e04612e3f565b5b828206905092915050565b7f4e487b7100000000000000000000000000000000000000000000000000000000600052601160045260246000fd5b7f4e487b7100000000000000000000000000000000000000000000000000000000600052601260045260246000fd5b7f4e487b7100000000000000000000000000000000000000000000000000000000600052602160045260246000fd5b7f4e487b7100000000000000000000000000000000000000000000000000000000600052603160045260246000fd5b7f4e487b7100000000000000000000000000000000000000000000000000000000600052603260045260246000fd5b600080fd5b7f6e6f74206120706c6179657220696e20746869732067616d652e000000000000600082015250565b7f796f7572207475726e206973206f7665722e0000000000000000000000000000600082015250565b7f62657420616d6f756e74206d7573742062652076616c69642e00000000000000600082015250565b7f6e6f206d6f7265206361726473206c65667420696e20746865206465636b0000600082015250565b7f6e6f7420796f7572207475726e20746f20706c61792e00000000000000000000600082015250565b7f6f6e6c7920746865206465616c65722063616e2063616c6c207468697320667560008201527f6e6374696f6e2e00000000000000000000000000000000000000000000000000602082015250565b7f706c6179657220646f65736e2774206861766520656e6f75676820746f6b656e60008201527f732e000000000000000000000000000000000000000000000000000000000000602082015250565b7f706c617965722068617320616c7265616479206265742e000000000000000000600082015250565b7f66756e6374696f6e2063616e6e6f742062652063616c6c65642072696768742060008201527f6e6f772e00000000000000000000000000000000000000000000000000000000602082015250565b600581106130f4576130f3612e6e565b5b50565b6004811061310857613107612e6e565b5b50565b600d811061311c5761311b612e6e565b5b50565b61312881612c87565b811461313357600080fd5b50565b61313f81612c99565b811461314a57600080fd5b50565b6002811061315a57600080fd5b50565b61316681612cfe565b811461317157600080fd5b5056fea26469706673582212207432cbaade9296bf806965482807e40c80f953916bcd788d2925eb2d363233c864736f6c63430008060033",
  "linkReferences": {},
  "deployedLinkReferences": {}
}